:020000041000EA
:1000000000B5324B212058609868022188439860DF
:10001000D860186158612E4B002199600221596106
:100020000121F02299502B49196001219960352056
:1000300000F044F80222904214D00621196600F024
:1000400034F8196E01211966002018661A6600F04E
:100050002CF8196E196E196E052000F02FF8012189
:100060000842F9D1002199601B49196000215960AB
:100070001A491B48016001219960EB211966A021F2
:10008000196600F012F800219960164914480160C1
:100090000121996001BC002800D000471248134993
:1000A000086003C880F30888084703B5996A0420EC
:1000B0000142FBD001200142F8D103BD02B5186610
:1000C0001866FFF7F2FF186E186E02BD00000240BE
:1000D000000000180000070000035F00212200005C
:1000E000F4000018222000A00001001008ED00E03C
:1000F00000000000000000000000000074B24E7A12
:1001000000200420F7010010C3010010C5010010F9
:10011000C1010010C1010010C1010010C101001097
:10012000C1010010C1010010C1010010C701001081
:10013000C1010010C1010010C9010010CB01001065
:10014000CD010010CD010010CD010010CD01001037
:10015000CD010010CD010010CD010010CD01001027
:10016000CD010010CD010010CD010010CD01001017
:10017000CD010010CD010010CD010010CD01001007
:10018000CD010010CD010010CD010010CD010010F7
:10019000CD010010CD010010CD010010CD010010E7
:1001A000CD010010CD010010CD010010CD010010D7
:1001B000CD010010CD010010CD010010CD010010C7
:1001C00000BE00BE00BE00BE00BE00BEEFF3058054
:1001D000103800BEF2EB8871D04E0010F44E0010C3
:1001E0003402001090A31AE700201F49086006C8D7
:1001F00081F3088810471D48006800282FD10DA4FE
:100200000ECC002902D000F012F8F9E71849194A7B
:10021000002000E001C19142FCD1174988471749ED
:1002200088471749884700BEFDE701C901C29A42C5
:10023000FBD37047F44E0010C0000020E00E0020F9
:10024000145D00100000042000000420145D001064
:10025000001004200010042000000000704709482E
:1002600001F0EAFE0047000008ED00E0000000D0C9
:10027000E00E0020C01C0020B11E0010B1040010D0
:10028000A51F00105756000006005250ABB3605334
:10029000484C001006005250861C0302584C0010B7
:1002A000060052505422A29D684C00100500525086
:1002B000DE65F468145D0010F8B5C04606480749CD
:1002C000091A8B10C90FC91810B5491003D0044B77
:1002D000002B00D0984710BDE00E0020E00E00205B
:1002E00000000000054B10B5002B03D00449054861
:1002F00000E000BFFFF7E2FF10BDC04600000000B5
:10030000481C0020A04B0010F0B5C64698462E4B66
:100310000E00C1184B1E994100B5050086B040463D
:100320000631170000F02EF9012331004246280063
:10033000009304F00DFB8023FC1C5B02029324035A
:10034000FB011C43214B80221C40434692059B022B
:10035000134305931E4B05200493039401F0E6FC20
:1003600001F062FF1B49041C0C9801F056FF011CB0
:10037000201C01F03EFF804601F07EFF84B2002386
:10038000002C0ED0200001F04FFF011C404601F070
:100390002AFF8721C90501F040FF01F06DFFC3B2BC
:1003A0001B0224043A001C43310002AB28000294D3
:1003B00004F022FB0123B3402A6813432B6006B0EC
:1003C00080BCB846F0BDC0460000E0AFFFFFFF9F15
:1003D00000000E5000002041F0B5194E83B005001A
:1003E0001849300004F03CFA174F04000021300097
:1003F0003E6004F017FA154B01001860144B220000
:10040000386800932B00FFF77FFF00224821114B33
:100410005A5200211A605A609A60DA601A615A6171
:100420009A61DA611A625A629A62DA621A635A63EC
:100430009A63DA631A645A644A32995403B0F0BD7D
:1004400000002050A04B0010441C0020881C0020FD
:1004500000504349F01B0020124B70B51A68124B34
:1004600012481C6801232100060010318B40A400B3
:100470004B361419057851680B42FCD1256145783B
:1004800051680B42FCD12561857851680B42FCD143
:10049000033025618642EDD16420002100F02EFF5B
:1004A00070BDC046441C0020881C0020F01B0020AA
:1004B000F8B502F061F80720FFF78EFF002348220D
:1004C0002B4C4826A352002223606360A360E360A4
:1004D00023616361A361E36123626362A362E362F8
:1004E00023636363A363E363236463644A33E25473
:1004F000FFF7B2FF1F4B1F1C4A250E231E491F4A40
:1005000063551F4B21606260A360E16022616361FB
:10051000A161E26123626162A262E36221636263BC
:10052000A363E16322646364A753FFF795FFFA2096
:10053000C00000F0F7FE002323606360A360E36067
:1005400023616361A361E36123626362A362E36287
:1005500023636363A363E36323646364A353635507
:10056000FFF77AFFFA20C00000F0DCFEC4E7C046C7
:10057000F01B0020F5250000F5250EF3E62DF525EE
:100580000EF3E62D094A10B59446402483006344D7
:100590001A68C00062408034144080225201134324
:1005A0001C60034B9C466044416010BD04C0014088
:1005B00000400140024B18688007C00F7047C046DA
:1005C00000C00640EFF3108072B6034A1368002B98
:1005D000FCD0BFF35F8F70472C0100D0BFF35F8F5B
:1005E0000022024B1A6080F3108870472C0100D063
:1005F00070B5EFF3108C72B60D4D2B68002BFCD04C
:10060000BFF35F8F0724CB08C618C05C01230C40E2
:10061000A3401C000440034207D118433070BFF3CD
:100620005F8F2C608CF3108870BD100001F0BEFC51
:100630002C0100D0F8B54746CE46884680B5EFF38A
:10064000108C72B6214D2C68002CFCD0BFF35F8F4C
:100650009A422CD8D4080727055D061901241740B3
:10066000BC402C421FD007210127894609E0D4084D
:10067000055D06194C4639001440A1400C00294282
:1006800011D001329342F2D201204042BFF35F8F7A
:1006900000220E4B1A608CF3108800280FDBC0BCC0
:1006A000B946B046F8BD254310003570EEE7BFF3FC
:1006B0005F8F00232B608CF310880120404243465B
:1006C000002BECD0089801F071FCC0462C0100D042
:1006D0000021044B044ABFF35F8F02C39342FAD157
:1006E0007047C046000100D0800100D0044A107855
:1006F000431CDBB2172B00D9102313707047C04680
:10070000E80D002010B5064B064C82B001000093A6
:1007100018221F232000FFF78DFF02B010BDC04636
:10072000B04B00107417002001238340002904D02F
:10073000034A1360034A13607047034A1360FBE7E0
:1007400080E200E000E100E080E100E0012383407E
:10075000014A13607047C04600E200E0084B1030C9
:100760009B688000C358002B07D0064A00209B1AC4
:100770002F229A424041C0B270470020FCE7C04699
:1007800000ED00E0EC0D0020024B10309B68800073
:10079000C058704700ED00E070B50D00EFF3108613
:1007A00072B60F4A1368002BFCD0BFF35F8F0D4B5E
:1007B00010309B6884001B590B4A934203D09D4222
:1007C00001D001F00BFC074B9B681D51BFF35F8FFD
:1007D000BFF35F8F0022024B1A6086F3108870BD52
:1007E000240100D000ED00E0CD010010F0B5574627
:1007F0004E46DE464546E0B585B00600009117003E
:10080000EFF3108B72B66A4A1368002BFCD0BFF36B
:100810005F8F0025674B5D579A46002D00DAA9E0EF
:100820006B00654C01935B199B009846A146C1443F
:100830004B4652469B7910361370604BB6009B684E
:1008400099590B1B2F2B33D95D4B994200D0ACE04B
:10085000019B42469C465B4B6544AD0063535A4B3B
:100860000232A218043B9B1A1B05584A5B0D6519FE
:1008700013436B80564B0121AB80FF23AB71009B70
:10088000EF71AB604B460B4319004C4B9B68995181
:10089000BFF35F8FBFF35F8F0022454B1A608BF36E
:1008A000108805B0F0BCBB46B246A946A046F0BDD4
:1008B00001200A008243D3798C46BB4231D8454699
:1008C000130044491B1B5B415943090D3D4B6353C6
:1008D0003D4B02356519043B5B1B1B053B4D5B0D16
:1008E0002B43AA464D466B800425AC465546E04452
:1008F000131F44441B1B1B055B0D1D434B46997185
:1009000000999D8099604946DF71334B0143136024
:10091000BBE75800C01880002018C179B9422FD910
:1009200002000623D356002BF3DA02932B4B6146C9
:100930000393131D9A4604235B429C46E1445046B0
:100940004B461B1A1B055B0D9C46204B9571984628
:100950006346404603439380019B5A199200039BD0
:10096000A418A380029B1C4AA371009B2260E7711C
:10097000A3608AE701F032FB002553465D574FE73D
:10098000908802934005131D9A46031561469C46C4
:100990004046D444634604302018181AE02300056A
:1009A000400D1B0218430390C5E701F017FB4FE70A
:1009B000240100D0BA1C0020EC0D002000ED00E066
:1009C000CD01001000A1FFFF1C0E002000E0FFFF82
:1009D00001BDFFFFAAAA00000148804701BD000039
:1009E000F0B5DE4657464E464546E0B50C0083B0AE
:1009F000EFF3108872B65D4A1368002BFCD0BFF38A
:100A00005F8F5B4B5B499A68030010339F00D55999
:100A10008D4239D0A5424AD0574EAA1B2F2A33D82F
:100A200001229246824091464846544A126810403C
:100A300001904846524A1060BFF35F8FEFF3058282
:100A40009346002A35D0934201D001F0C7FA2A001C
:100A500053469A439068844208D175E04B005B1876
:100A60009B00F3189868A04234D01A000621515612
:100A70000029F3DA844253D0019B002B26D04A464A
:100A8000404B1A603D4B1A60394B9B68DD51BFF3F8
:100A90005F8FBFF35F8F0022344B1A6088F310889A
:100AA00003B0F0BCBB46B246A946A046F0BD0D005F
:100AB000EAE72A0053469A4390688442D6D106203A
:100AC00010561300002809DA0D0031E04A462C4B7D
:100AD0001A60D9E706201856002822DB42001118B8
:100AE000890074188A46A1689960E179D971062154
:100AF00061569971002925DBA488F11A6405241533
:100B000054440919E0240905490D24022143998020
:100B100013181D4A9B001178F31899711070ABE7F8
:100B200013005946002914D1FF3191711749918062
:100B300015490A789A71164A9B1B5B415A43120D5C
:100B40000A7099E71349E2E70620105613000028BF
:100B5000C4DA114A1149D21A083A5002400D014331
:100B600099800F4952080A43DA8085E7240100D0B2
:100B700000ED00E0CD010010EC0D002000E100E0F0
:100B800080E100E080E200E0BA1C002001BDFFFF30
:100B9000AAAA000001BD0000260E002000F0FFFF01
:100BA00000F8FFFF70B5EFF3058101240443EFF374
:100BB000108C72B6214A1368002BFCD0BFF35F8FF4
:100BC0001F4B05001F4AED1A6D416A43120D1E4D61
:100BD0008900AE6852B27658A6421CD006215956FA
:100BE00091421CD012215956914222D01E215956B1
:100BF000914220D02A2159560324914210D0134B00
:100C000019781A708171BFF35F8F00220B4B1A6045
:100C10008CF3108870BDAB680D4C5C50EFE700247E
:100C20006100091989005B18FF21997109499980B0
:100C3000E5E70124F4E70224F2E7C046240100D0EE
:100C4000EC0D0020AAAA000000ED00E0BA1C002074
:100C5000CD01001001BDFFFF054B064A1360064A97
:100C6000136053609360D360136153619361704765
:100C70008080808000E400E004E400E010B5084BD0
:100C8000084C82B001000093002205232000FFF7EA
:100C9000D1FC002801DB1F23181A02B010BDC0468A
:100CA000CC4B0010BF1C0020024B9C4661448900C5
:100CB000016070474000003410B50400FFF716FDD6
:100CC00001002000FFF7F0FFFF232371BFF35F8FC8
:100CD00010BDC04610B50400FFF708FD010020005C
:100CE000FFF7E2FFFF23A380BFF35F8F10BDC04675
:100CF00010B504000120FFF705FD034BC3189B004E
:100D00002360BFF35F8F10BD40000034034B9C464F
:100D1000614489000160BFF35F8F70474000003479
:100D200083680B4810B5844661446244120109018E
:100D300059189B185C684A680120944201D802D077
:100D40000020C0B210BD1A680B689A42F9D8F7E7C4
:100D5000FFFFFF0F0A4B1968EFF3108072B60A68A5
:100D6000002AFCD0BFF35F8F1B68BFF35F8F0022A8
:100D70001A6080F3108840BF002000217047C046F1
:100D8000841C0020F8B5574645464E46DE46E0B581
:100D900098460CAB1C780DAB1B78070091469A4621
:100DA0000568002C59D1AC7B002C3BD0660029682B
:100DB0003619033E89194B78AB73002B00D1EB73C6
:100DC00000238B704B700B702D4BE218BB68120127
:100DD0009B184A461A6042465A600A9A9A600B9AD1
:100DE000DA6000238B704B700B706B7B9B46002B83
:100DF00026D022006B685946A86898475B465B007E
:100E00005B442A68033B002812D058469619B070FC
:100E1000D118D35C002B00D073705B460C706B73E1
:100E20005C450ED0F0BCBB46B246A946A046F8BD14
:100E3000D3189C709119925D002A1CD15B460B70EF
:100E40006C734A464346387D00F0B8FB051E0AD154
:100E50000E9B002BE6D01D70E4E76600296836196A
:100E6000033E8919B0E75346002BF1D121003868C1
:100E700000F0BCFDECE75A705B460B706C73E0E76A
:100E8000FFFFFF0FF0B5DE4657464E4645460023AE
:100E9000E0B58BB00893684B8200D45800239B4682
:100EA000099000F02BFB02000B006068EFF3108A42
:100EB00072B6564601680029FCD0B246BFF35F8F78
:100EC00021684F7B8C46002F2ED0A5685B49A94630
:100ED00079180901894449460868496805000E00E7
:100EE000AD1A9E41002E5FDD02000B00099800F054
:100EF00065FB0023002299460023069207930023F6
:100F000098466368BFF35F8F5A461A608AF3108869
:100F10004346002B12D10028C3D10BB0F0BCBB4616
:100F2000B246A946A046F0BD002300229946002300
:100F300006920793002300209846E2E7089B494663
:100F400018023843C047626805000E00EFF3108AAC
:100F500072B61368002BFCD0BFF35F8F002E41DB0D
:100F60002B00334302D02369002B56D12368D97B51
:100F7000002905D01A68480041185218033A5770E2
:100F80009A7B002A00D19F73DF73E268013FD35D33
:100F90000133D3555B4623616368BFF35F8F5A46C5
:100FA0001A608AF310887CE7002E02D1002D00D051
:100FB0009AE70021604600F097FC4B461A685B6890
:100FC000069207934B469B6898464B46DB689946CA
:100FD000E368DB19013B1B7808931B020343236181
:100FE00000208EE72369002BC0D0069A079B802142
:100FF000521BB34109068B4202D30122104B5242CD
:10100000002104910131039149460191414620009C
:1010100002970091FFF7B6FEBCE700F06FFA2A00D6
:10102000330012184B41802109068B42E8D301227C
:10103000034B5242E4E7C046681C0020FFFFFF0F4D
:10104000FFFFFF7F10B5144C6368002B04D00A210A
:101050001248FFF729FE10BD2300114A1021206815
:1010600000F05EFB032000F03DFA032000F00EFBD1
:1010700003200C4900F05CFAFFF738FB0A4B9C4652
:1010800003232375D0231B061B6860446375074B3D
:1010900080006060DC60DAE7340E0020841C0020F1
:1010A000210D0010850E001040000034681C002047
:1010B00000487047340E0020F0B557464E4645466E
:1010C000DE46E0B585B0019310AB1B7806000393B4
:1010D00000239A46984600927268EFF3108B72B61E
:1010E0001368002BFCD0BFF35F8F3568AC7B002CFE
:1010F00000D16EE067002B683F19033FDB195A7877
:10110000AA73002A00D1EA73484AA118B2680901FB
:10111000521800980199106051600E9991600F99D2
:10112000D16042469A705A701A706B7B9946002BB8
:1011300000D16BE022006B684946A86898474B468F
:101140005B004B442A68033B002856D04846D71919
:10115000B870D118D35C002B00D07B704B460C705C
:101160006B734C4553D0F3681B19013B18787368B7
:10117000BFF35F8F42461A608BF310885346002BF3
:1011800008D10002204305B0F0BCBB46B246A946D8
:10119000A046F0BD039B002B46D00E9B00200F996C
:1011A000984703000B433FD004000D1E1ADA009A43
:1011B000019B121BAB4100920193802212069342C5
:1011C00004D301231A4C5B4200930194039B9A467B
:1011D00082E77368BFF35F8F1C608BF31088012078
:1011E0004042D0E700F08AF98022001969411206D6
:1011F000009001919142E9D3E3E7D3189C70D11993
:10120000D25D002A00D05A704B460B706C73307D53
:10121000009A019B00F0D2F982460028A3D0210059
:10122000306800F0E3FB9EE70020ACE7FFFFFF0F14
:10123000FFFFFF7F407D7047F0B504000D000626DC
:101240007642F717C64636196F4100B584B08F4213
:1012500014D811D000F052F932003B00121A8B4121
:10126000002B15DC002B3ED02000290000F050F9A7
:1012700004B080BCB846F0BD8642EBD900260027FA
:1012800000F03CF932003B00121A8B41002BE9DDE3
:10129000002302930193154B3200009314483B0046
:1012A000FFF70AFF0028DFDB00239846BC46114AFF
:1012B000114F7B6A9C4504D8B96A8E42D4D99C45AB
:1012C000D2D11168EFF3108072B60B68002BFCD0FE
:1012D000BFF35F8F1368BFF35F8F4146196080F3E0
:1012E000108820BFE5E7002ABED0D1E7550D0010D9
:1012F000340E0020841C00200040054070B504001E
:101300000D0000F0FBF88023001969411B0699428B
:1013100002D3012002494042FFF78EFF70BDC04654
:10132000FFFFFF7F70B5060000F0E8F8FA22040026
:101330000D00002330000021920000F037FF8023D1
:10134000001969411B06994202D30120024940421B
:10135000FFF772FF70BDC046FFFFFF7FF0B5EFF3F0
:101360000583CE46474680B505000C0085B0002BAE
:1013700012D02A4A0020536AA34203D3926A013052
:10138000AA4204D305B0C0BCB946B046F0BD1B1B91
:101390005A1E9341D8B2F5E7214E02930193214B97
:1013A0000200009330000B00FFF786FE031EE0DD15
:1013B00020BF7168EFF3108772B60A68002AFCD06C
:1013C000BFF35F8FDAB29446FF2230681A40417B48
:1013D00061450FD0016889465100884649469044CE
:1013E000414403398978002904D13269934209D1F3
:1013F000316107E0F1681B0A8A18013A1278DBB202
:101400009A4207D07368BFF35F8F00221A6087F398
:101410001088AEE7614600F0E9FAF3E700400540C6
:10142000340E0020550D0010F0B5EFF30582D646BE
:101430004F4646461000C0B51038EFF3108872B61C
:10144000214C2368002BFCD0BFF35F8F01231900D0
:1014500081401E4D1F006963AA461D4D29601D4D28
:101460002E78AC463500C5402F402B4215D0534650
:101470005F6A194B8500EB589F4218D36246174BA1
:101480008E43EB581670BFF35F8F0022226088F303
:101490001088002B06D0984704E0BFF35F8F2760C9
:1014A00088F31088E0BCBA46B146A846F0BD0C4BA4
:1014B00092009C46624413681360BFF35F8F002361
:1014C000236088F31088EDE7280100D00040054034
:1014D0003C700540BE1C0020941C00205C160020BF
:1014E000D03F054010B5034B01001800024AFFF73A
:1014F0007FF810BDB81C0020E84B0010034B596A60
:101500000A00986A596A8A42FAD170470040054039
:10151000064A536A9942FCD807D1044B02E05A6A42
:10152000914202D19A6A8242F9D370470040054045
:1015300070B504000D00EFF3108672B61A4A1368F6
:10154000002BFCD0BFF35F8F002D1BD02000FFF7D6
:101550001BF9164981420AD02000FFF71DF901212D
:101560002000FFF7E1F80123A340114A1360114B5B
:10157000A400E550BFF35F8F00220B4B1A6086F387
:10158000108870BD0121A1400A4BA200D5500A4B22
:1015900020001A788A4305491A70FFF721FA0021C2
:1015A0002000FFF7C1F8E5E7280100D0291400105A
:1015B000386005405C160020BE1C0020F0B54F4688
:1015C000D6464646C0B507002B4C616A0D00A66A98
:1015D000616AA942FAD18B4208D805D00120E0BC4B
:1015E000BA46B146A846F0BDB242F7D9EFF3108A29
:1015F00072B6224801680029FCD0BFF35F8F012535
:10160000BD401F491C4C8846097889462943C9B208
:101610008C46414660460870391D890065630A5151
:101620001849B8004350216A0020294219D0616A44
:101630000800A66A616A8142FAD18B4219D801D1A9
:10164000B24216D8CC450BD00B4B1F221D625D63F6
:1016500001233A4093400C4A136043464A461A70AD
:101660000120BFF35F8F0022044B1A608AF31088B9
:10167000B5E70020F5E7C04600400540280100D04E
:10168000BE1C0020941C002080E200E0EFF3108CD0
:1016900072B60A490B68002BFCD0BFF35F8F0123A1
:1016A0008340074A0748136202789A430270BFF3E7
:1016B0005F8F00230B608CF310887047280100D0E7
:1016C00000400540BE1C002070B506000D0014004F
:1016D00000291DD0002A12D07368806898476200E4
:1016E0006B0012195B193168033A033B002808D0DC
:1016F0008A189570C818CB5C002B0BD10470280099
:1017000070BDCB189C7088188A5C002A05D10570C2
:101710002000F5E753700470F1E75A700570F7E7A1
:1017200010B583600023CCB243730133426004736D
:101730008373C4730068421C012C05D90133DBB2EA
:10174000137003329C42F9D1FF230B405A00D31887
:10175000C01800230338437010BDC04670B50500A3
:101760000C1E07D0630001681B19033BCB185A7885
:10177000002A01D1200070BD5000801803380918DC
:1017800000204E784870210058702800FFF79CFF19
:10179000310004002800FFF7E1FF0600002C20D0F4
:1017A0000028E7D0320021006B68A86898477200D3
:1017B000630092191B192968033A033B002808D0DB
:1017C0008A189470C818CB5C002B00D05370067038
:1017D000D0E7CB189E7088188A5C002A00D05A7017
:1017E00004703400C6E7C046F0B557464546DE46AD
:1017F0004E46E0B50D006F0001687F19033F0400FD
:10180000C85D83B00192CA19002850D043001B184C
:10181000033BCB185E78B446002E1AD1019E002EF1
:1018200042D0E67B002E04D073009B19CB18033BFB
:101830005D70A37B002B00D1A573E57300282FD129
:101840000023537003B0F0BCBB46B246A946A04685
:10185000F0BD72006244033A8A185178884600212C
:10186000517089465970320001002000FFF72CFFAB
:1018700043468246002B07D05B0021684344033B6C
:10188000CB185A78002A16D1424651462000FFF75D
:101890001BFF2168019BCA19002BC2D10028CFD0A1
:1018A00043001B18033BCB1800219970C8E7019B2C
:1018B000002BB6D1C4E750008018033809184878C7
:1018C000834648464870587041462000FFF7FCFEAA
:1018D000594680462000FFF741FF414602002000A4
:1018E000FFF7F2FE8046CFE7F0B557464546DE46A5
:1018F0004E46E0B583B00191457B04006F0000685F
:101900007F19033FC15DC219002952D04B005B18FB
:10191000033BC3185E78B446002E1CD1019E002EF6
:1019200044D0E67B002E04D073009B19C318033B00
:101930005D70A37B002B00D1A573E573002931D125
:10194000002328005370617303B0F0BCBB46B2465D
:10195000A946A046F0BD72006244033A821850784E
:101960008046002050708146587032002000FFF7FA
:10197000ABFE43468246002B07D05B002168434400
:10198000033BCB185A78002A17D142465146200013
:10199000FFF79AFE019B01002068C219002BC0D1FD
:1019A0000029CDD04B005B18033BC3180020987072
:1019B000C6E7019B002BB4D1C2E750008018033862
:1019C00009184878834648464870587041462000B8
:1019D000FFF77AFE594680462000FFF7BFFE4146DA
:1019E00002002000FFF770FE8046CEE770B50500CC
:1019F00000292CD0437B8B422ED04C000068641809
:101A0000033C0419A278002A21D053009B18033B01
:101A1000C25CC6188A4202D11BE0002A08D05300DB
:101A20009B18033BC3185A788A42F6D162785A70E1
:101A3000002301222800A3706370FFF7D5FE697BA5
:101A400002002800FFF740FE6873012000E000203C
:101A500070BD63783370EBE701221900FFF7C4FE15
:101A6000F2E7C04610B50C2082B000F0B7F9FEF7DF
:101A7000A1FD002810D08B4B8B488B498B4A1860F6
:101A800059609860D960186159619861D96118628C
:101A900059625A6202B010BD854CA06700F0F4F99B
:101AA0000122844B1A60636C012BFCD10322824B10
:101AB0001A607F4A936B012BFCD1013301217F4ACD
:101AC0007F480093043300F037F905237D4A0093E3
:101AD00001217D4800F030F97C4B5A68FF2A02D87A
:101AE000802252005A608022734B6E4C12011A60A1
:101AF0002169002907D0606900F0D0FA0130430065
:101B00001B18033BFDD2E022704B714819680A4054
:101B1000026002221968514001320A400421026029
:101B20009A681142FCD080216A4A09011160802222
:101B300052005A60684B2361684B5968FF2900D8EE
:101B40005A60032201215B4B1A60644A9368194270
:101B5000FCD0E0231068034061480360126803234F
:101B60004A40022113405D4A036093681942FCD049
:101B700080215C4B0901196080215B4B4900516059
:101B800063615A4B5A68FF2A00D859608022584B2B
:101B900012011A60E169002907D0606900F07EFA3D
:101BA000013043001B18033BFDD2E0234F4A11686C
:101BB0000B4050490B6080214F4B09011960802177
:101BC000394B49005160E3614C4B5A68FF2A00D8F9
:101BD000596080224A4B12011A60216A002907D0FD
:101BE000606900F05BFA013043001B18033BFDD233
:101BF000E023424A11680B4042490B608021424B6E
:101C00000901196080235B0053608022264BD202B9
:101C100023623E4B5968914200D25A6080223C4B6D
:101C200012011A60616A002907D0606900F036FA73
:101C3000013043001B18033BFDD2E023334A1168F7
:101C40000B4034490B608021334B0901196080231C
:101C5000DB025360154B6362304B5A68FF2A02D88F
:101C6000802252005A6080222D4B12011A60A16915
:101C7000002907D0606900F011FA013043001B18F9
:101C8000033BFDD2E023254A11680B4025490B6038
:101C90008021254B0901196080235B005360124BA2
:101CA000A361F7E6E00E0020006CDC021BB7000029
:101CB000008000403CB0004030B00040002F685928
:101CC00000800240008C864700C002403080004007
:101CD0003090004030A00040001BB7003C80004026
:101CE0003C9000403CA000404059730754800040A5
:101CF00054B000405490004054A000406080004028
:101D000060B000406090004060A000406C800040E7
:101D10006CB000406C9000406CA0004048800040D7
:101D200048B000404890004048A00040014B80006F
:101D3000C0587047E00E0020F8B5040022481E008D
:101D400017000D0000F0AAF90100380000F0A6F914
:101D5000069B36041B031E432368002B22DB1B4B10
:101D60001B49E3185A1E93418022920194465B421C
:101D70001B0B184A1B0363441360174A13601F00B0
:101D80008A689743FBD1C022231D92011A43212365
:101D90002560A06013602368002BFCDA0823E6604E
:101DA0001360F8BD3F2322681340AB42D7D1A3682C
:101DB0001B051B0D8342D2D1EE22E368D2021340F1
:101DC000B342CCD1EDE7C046001BB7000040FDBFD9
:101DD00000C0004000E0004000F000408023024AC4
:101DE0009B000343D36270470080054010B58024F8
:101DF0001C4BE4051C6000281AD001231A4C184320
:101E00001A4BDC611A4C44401C6259629862802172
:101E1000144BC9051960174817490860E021C90427
:101E20001960002A07D18022144B12061A6010BDD7
:101E30000E4BD861EBE753019B1A9B009A18802345
:101E400012015B049A4209D213000D490B60074B43
:101E50005A608022094BD2051A60E8E7094B1A0044
:101E6000F3E7C04600B00540D3C007B0008005408E
:101E70002D3FF84FFCFF01000820014000A0054065
:101E80003C1C0020FFFFFF00AA23064A1B01136031
:101E90002F230549D360054B19605368002BFCDAEA
:101EA0007047C0460040024000B0FA0000600240A7
:101EB0002C4B2D4A70B51A602C4A2D4B2D491A60B7
:101EC00014008B689C43FBD12B4D2C4EB54208D29D
:101ED000013E761BB60808CD984723000134B34273
:101EE000F9D1FFF7BFFD264A214B1A60214A9368BA
:101EF000DB43DB01DD09002BF9D14022214B224CD1
:101F0000224E9A675A671A67DA66B44208D2236883
:101F10002000002B20D00834FEF7DCFEB442F6D3BC
:101F20001B4C1C4EC022B168200000F001FAB460C6
:101F3000FEF7CEFBFEF790FEFFF784F8164C174E27
:101F4000B44208D2013E361BB60808CC98472B0095
:101F500001359E42F9D170BD0834FEF7ADFEB442A2
:101F6000D5D3DDE700E00040BFCDFBFEFE7F3C00A7
:101F700000F0004000C00040C80E0020D80E002035
:101F8000FFFFFF0100F00140C00E0020C80E00203E
:101F90000000002000ED00E0D80E0020E00E002040
:101FA00000BEFDE710B5FFF7FBFFC0460FB400B55C
:101FB000084883B000F058FA049B002B07D005A90D
:101FC0001800019100F018F8034800F04DFA0120C4
:101FD000FFF7E6FF0C4C00101C4C001010B5014838
:101FE000FFF7E4FF204C001010B5002800D110BD11
:101FF00000F0EEF9FBE7C04610B5094A030014688B
:1020000084B0002C08D0012200910648524203A956
:10201000A047012004B010BD00F026FA0020F9E727
:10202000EC1B0020E91F001001480421014B184758
:10203000600E002059200010142310B501001888EC
:1020400004331B88984710BD162310B5010018886B
:1020500002331B88984710BDF8B54746CE4680B579
:102060000F1E19D0142399460433040000250126BD
:1020700098464B461888434621681B88984701C4F8
:10208000431E9841013540420640AF42F1D1300035
:10209000C0BCB946B046F8BD0126F8E7114A936FB7
:1020A0009B0813D210665166002905D0FFE7FFE7B1
:1020B000FFE7516F106F704704B5002801D0002072
:1020C000C04302F025FD002104BDC046F0B5146EEA
:1020D000556E576F166FFFF7E5FF14665566576725
:1020E0001667F0BD000000D0132370B51D78012DD8
:1020F00015D010DD1D48FFF7A7FF1D4C0100802201
:10210000200000F015F9022D2DD01A48FFF794FF9A
:10211000194B186070BD194B154CA364F5E7174BAC
:10212000134C23606360A360E36023616361A36178
:10213000E36123626362A362E36223636363A36375
:10214000E36323646364A364E36423656365A36555
:10215000E36523666366A366E36623676367A36735
:10216000E367A364D1E7054BA364CEE753440000C3
:10217000101000204C330000801C00208121001032
:1021800007B5604601880A0A0230DF2AFAD1C9B2CF
:10219000820804D3028840880004104300E00068ED
:1021A000014A5050039007BD101000205143434393
:1021B000C9188C46110C83B24B4310B4040C614314
:1021C00092B280B2504362431C041B0C001910BC35
:1021D00059411304120CC01851416144704700006A
:1021E0004840414048400E4B5B6818470C4B1B6809
:1021F00018470C4A936F9B0802D2094BDB681847BB
:10220000F0B5146E556E576F166FFFF7F6FF054A5F
:102210001466556657671667F0BD014B9B681847F3
:1022200010110020000000D0491A002808D10846EB
:1022300070470000C10FC90700D54042002817D0E1
:10224000F44603B40B4B1B68984706BC81409E388C
:102250004042803107D20B0607D04900490AC00529
:102260001043084360470130F8E7490A8902F5E75F
:1022700070470000801C0020014B5B6A184700007B
:1022800010110020132310B512481C78FFF7DCFE54
:102290000100012C0AD003DD80220F4800F048F82D
:1022A0000E48FFF7C9FE0E4B186010BD0A4C5422B1
:1022B000200000F03DF80B4B6365A365E3652366E2
:1022C0006366A366E36623676367A367E3672362C6
:1022D000E361E5E753460000101100204C33000095
:1022E000801C0020E922001007B5604601880A0A18
:1022F0000230DF2AFAD1C9B2820804D302884088AA
:102300000004104300E00068014A5050039007BDEC
:102310001011002001480421014B1847700E0020C5
:1023200059200010014B1B6818470000700E002058
:10233000014B5B6818470000700E0020F0B5C646E0
:1023400000B5437D07000D001600002B38D0002A91
:102350002EDD00216A1E90466A5C037D4C1C002025
:102360000A2A0CD0A64216D043461B5D21000D3B25
:102370005A4253416A5CDBB24C1C0A2AF2D1002B50
:10238000F0D1884217DB022110483B689847A642EB
:1023900007D02000E8E7864203DD311A3B682818A1
:1023A0009847AD19013D2B780D3B5A4253413B757F
:1023B00080BCB846F0BD091A3B6828189847E2E788
:1023C0000368110028009847F2E7C046844D0010CA
:1023D000F0B5CE46474680B583B06B460600DD1D9E
:1023E0002870FFF78BF800231A4A12184B418021FE
:1023F00009068B4202D30122174B524217490800AB
:10240000884602F0B5FB164B81461C68002C14D0A0
:10241000144F02E02469002C0FD02368002BF9D060
:102420003B68002B01D0A342F4D1200001222900F7
:10243000FFF784FF2469002CEFD14B46002B05D118
:10244000300003B0C0BCB946B046F0BD404602F013
:1024500057FBF5E740420F00FFFFFF7FC00E002053
:10246000E0170020E8170020F0B5DE4657464E463C
:102470004546E0B585B0070002F00AFB0600FFF70D
:102480003DF800232B4A12184B41802109068B424C
:1024900002D30122284B5242284908008B4602F001
:1024A00067FB274B01901C689A46002C3BD0254BBC
:1024B000984602ABDD1D0A23994602E02469002CF0
:1024C00017D02368002BF9D043461B68002B01D09E
:1024D0009C42F3D1200032003900FFF72FFF4B461A
:1024E0002000012229002B70FFF728FF2469002C0F
:1024F000E7D1019B002B18D153461C68002C06D055
:102500006368002B0BD098472469002CF8D1300069
:1025100005B0F0BCBB46B246A946A046F0BD246952
:10252000002CEDD1F3E70028F1D0584602F0E8FA8C
:10253000E2E7C04640420F00FFFFFF7FC00E0020D1
:10254000E0170020E81700200A4A1368002B05D185
:102550000CE01A001B691032002B07D09842F8D10A
:10256000002902D103691360016170470029FCD082
:102570001060FAE7E017002010B500F0D9F910BD9F
:102580007047C0460022014B1A707047BB1C0020E8
:102590004B790020FF2B0BD18B79002B08D1CB7905
:1025A000012B05D1082A03D9024B8A7809301A7009
:1025B0007047C046BB1C00200120704770B5012940
:1025C00001D0012070BD13495379107909781B029D
:1025D000034300209942F5D15378012B08D0022BF8
:1025E000F0D1002064220021FFF700FC0120E9E780
:1025F0009478D278050012021443D20502D5620AFB
:1026000093401D000448FFF717FD7F210300214080
:1026100028009847BB1C002055420000012303708E
:1026200000487047884D00104B780A781B0213430E
:102630008A7810B512041A43CB781B0613439622EE
:10264000D200934200D010BD0348FFF7F5FC0021F3
:10265000030008009847C04655420000024B18602E
:10266000024B19607047C0466C170020701700209D
:1026700010B5024B1878FEF769F810BDBC1C00209D
:10268000114B70B51A68002A1AD0EFF3108172B698
:1026900010680028FCD0BFF35F8F00200B4A596000
:1026A00010701B68BFF35F8F186081F310880024DF
:1026B0000025074B1878FEF749F82900200070BD67
:1026C000FA240025A400F4E7601C0020BD1C0020B3
:1026D000BC1C002070B5040000200E0001F0E8FAD8
:1026E000002836D0002001F0FBFA002831D0FEF798
:1026F00005FF0023184A12184B41802109068B421E
:1027000016D2164D280002F033FA002821D00020FE
:1027100001F0CEFA00280FD101200021404200F044
:10272000C1FC03246442280002F0EAF9200070BDD5
:1027300001220B4B5242E4E7002001F0D1FA0028BD
:10274000EAD021003200002001F0D6FA041EEAD1BE
:10275000E7E703246442E9E740420F008C1C0020B5
:10276000FFFFFF7FF8B5DE46574680B505000C0039
:10277000FEF7C4FE0023374A12184B418021090698
:102780008B4202D30122344B5242344908008A461C
:1027900002F0EEF9002803D1C0BCBB46B246F8BD3A
:1027A000002001F085FA00284AD00026002C43DDE5
:1027B0002B4B9B4614E0A919002001F011FB0700E8
:1027C00001200021404200F06DFC002001F0CCFA15
:1027D000FEF794FE224BF61918605960B4422BDDC7
:1027E000002001F017FBA71B0200B84200DD3A00F1
:1027F000002AE0D101200021404200F053FC0020DB
:1028000001F0B2FA002001F053FA002814D00020A1
:1028100001F000FB0028E1D1FEF770FE5B460F00DF
:102820001A685B68002184460E4812184B419F428B
:1028300002D8D3D19445D1D9504602F061F9ABE723
:1028400000200021064B18605960504602F058F9EC
:10285000A2E7C04640420F00FFFFFF7F8C1C002014
:102860000810002020A1070010B5244C84B00021DE
:10287000200002F05DF900281CD1214B1A68002AC3
:1028800016D0EFF3108172B610680028FCD0BFF3A9
:102890005F8F01241B48596002781B68D2B2047014
:1028A000BFF35F8F0020186081F31088002A0AD0E0
:1028B00004B010BD01200021404200F0F3FB2000D5
:1028C00002F01EF9F4E7FEF7F3FB0400FEF716FE34
:1028D000FA220023920012184B41802109068B42F4
:1028E00002D30122084B52420121029100210191A1
:1028F000064920000091FEF7DFFBD9E78C1C002081
:10290000601C0020BD1C0020FFFFFF7F81260010FF
:10291000054B10B51868002804D0044B0022196834
:1029200001F036F810BDC0466C170020701700206B
:10293000D02310B51B0684B01C68FEF7B9FBFEF768
:1029400079FCA04202D0002004B010BD274B1B78B8
:1029500001F042FC2648FEF7AFF90120FEF78EF9A0
:10296000FF23244C244920701840FDF715FF2078E0
:102970000121FDF7D9FE0520FDF7F0FE002827D143
:10298000FEF796FB0400FEF7B9FDFA220023920041
:1029900012184B41802109068B4202D30122174BAA
:1029A000524201210291002101911549200000911C
:1029B000FEF782FB0822040000211248FFF7B2FC58
:1029C000002CC0DB10480121FFF7BEFD0120BBE752
:1029D00000220E490520FDF709FFFDF787FE094B90
:1029E00001001800FEF792F9ECE7C046F04E001027
:1029F0008C1C0020BC1C002069280010FFFFFF7FFA
:102A000081260010601C0020800E0020712600101E
:102A100000487047184E001000487047C44D001021
:102A200010B5040017480378002B20D0002C06D1E5
:102A3000154B16484380063BFF3B038010BD052C19
:102A400019D8134BA400E05812490123013804E0BF
:102A500001330A800231142B0FD0C25C002AF7D157
:102A6000C022DBB25B00920008481343E5E7112166
:102A700000F01AF8DAE70020E0E7CA2303489B00D9
:102A8000DBE7C046A41C002009040000B8170020A2
:102A9000AC4D0010BA17002010B5024800F0D8F86D
:102AA00010BDC046781C002030B54B1E012900D156
:102AB000A7E0664A11780D092C0030349F2900D90F
:102AC000A2E00470012B00D1BEE00F211478214058
:102AD0000C003034092900D998E04470022B00D151
:102AE000B2E054782509290030319F2C00D990E0BC
:102AF0008170032B00D1A7E00F2121400C0030345E
:102B0000092900D987E0C470042B00D19CE0947897
:102B10002509290030319F2C00D97FE00171052B58
:102B200000D191E00F2121400C003034092900D957
:102B300076E04471062B00D186E0D478250929007F
:102B400030319F2C00D96EE08171072B00D17BE0E2
:102B50000F2121400C003034092966D8C471082B9C
:102B600000D171E014792509290030319F2C5FD8FC
:102B70000172092B68D00F2121400C003034092943
:102B800058D844720A2B5FD0547925092900303176
:102B90009F2C52D881720B2B56D00F2121400C0054
:102BA000303409294BD8C4720C2B4DD094792509A7
:102BB000290030319F2C00D9073101730D2B43D0F0
:102BC0000F2121400C003034092901D937310C0084
:102BD00044730E2B38D0D1790C09220030329F2952
:102BE00000D9073282730F2B2ED00F220A4011001A
:102BF0003731092A01D830321100C173102B23D08C
:102C000010300023037030BD07345AE737310C0011
:102C100063E707316CE737310C0074E707317DE774
:102C200037310C0085E707318EE737310C0095E727
:102C300007319DE737310C00A3E70731AAE73731A9
:102C40000C00C4720C2BB1D1C018DAE7781C00203C
:102C500010B588B004000D2200216846FFF762FB22
:102C60000D22002104A8FFF75DFB4B236A4668464E
:102C7000137004A90D2201F03BFF1521082220004A
:102C80006944FFF755FB08B010BDC04610B50121DF
:102C90000520FDF749FD10BD10B5002200210248B6
:102CA00000F058F910BDC0460C1800208022024BDD
:102CB0005202DA647047C04600201150F0B5C64693
:102CC00000B5060000F020F90C231B4DFF22AB6776
:102CD00005201A49FDF78AFD40239846184C4022EA
:102CE00000212000FFF71EFB4346012723832121FB
:102CF0000023144A6770A260136063545F316184DB
:102D000041462187053963540F4A10496360E260E8
:102D1000A1620B606362E26201F002FF80239B0507
:102D20002F64EB6490230A4A3000EA50FFF7BEFF9D
:102D300080BCB846F0BDC04600001150A104002080
:102D4000EC1700208400105000011050800010503B
:102D500010D001000B785B0602D14B78052B00D018
:102D600070478A78014B1A60FAE7C046000011509C
:102D7000F0B5C64600B5CC7888780A794B797F21C2
:102D8000A40701401B02C50913434F00A20F140002
:102D9000324E7A195201B21890700120684050707A
:102DA00000205B055B0DD0701383D4768046CA008B
:102DB000012D33D02A488446880162448446B444B5
:102DC0006046826040461060002933D0254AC90021
:102DD00090466246414451603F223F339343022C68
:102DE00000D15B0020487A1901685201B218D16005
:102DF0001E4ACB18036051405A40802388465B012D
:102E00009A4228D84346A4061C4380237F197F0199
:102E1000F61972681B062343136011E014488446B8
:102E2000880162448446B444604682624046106031
:102E3000002909D100236D0175196B600D4BEB6002
:102E4000012080BCB846F0BD084AC90090466246E1
:102E500041445162C0E7FFF7C1F8D3E7EC17002007
:102E60008400105004001050401C0020000010503E
:102E7000800010500001105010B501F051FE10BD3F
:102E800010B57F200C0020404000E409110000191B
:102E90001A00034B4001C01800F05CF8012010BD7F
:102EA000EC1700207F23180010B50840CA090B4218
:102EB00003D107497D3B9B1A8B6640008018802216
:102EC000044B40010021C018120101F061FE10BD49
:102ED00000201150EC1700207F22130010B50B408A
:102EE0000A4200D110BDC9095B005B1804485B01B0
:102EF000C018002300220349C37001F049FEF1E726
:102F0000EC170020FFF7FFFF80220D4B520410B595
:102F10001A600C4B0C491A6010008B689843FBD167
:102F20000A4C9C2200212000FFF7FCF9802200219E
:102F300052010748FFF7F6F90923636710BDC04641
:102F400000E0004000F0004000C0004000001150D0
:102F500000001050002310B5C382013382828376B3
:102F60000161040001F0FCFD002804D080219023C1
:102F7000074A8902D150200001F0E2FD002802D06A
:102F80000123237710BD200001F0FAFDFAE7C046C7
:102F900000201150024B5878431E9841C0B2704730
:102FA00038150020024B18784007C00F7047C04604
:102FB00038150020034B1878FF38431E9841C0B2E3
:102FC0007047C046BC0E0020F8B5CE46474680B5D7
:102FD0002A4E05003378FF2B01D001203DE053221B
:102FE00000212748FFF79EF9264C2000FDF764FEDC
:102FF000254B1C60254C2000143CFDF779FE200079
:1030000001F0CCFB224B234F1C60234B9846002F32
:103010001ED01800FFF702FB204B186043461B78B8
:103020001F4A00249146002F14D04A46A3421AD8C2
:103030009047434601341B78E4B2A342F3D2280000
:103040003570FFF73BFE2800FFF720FE012004E06B
:103050001B78E5E7002C04D00020C0BCB946B04680
:10306000F8BD0F4AE4E70D4A630012681B19DB0044
:10307000D318002BF0D01A68DAE7C046BC0E002047
:1030800038150020F01400208C150020B40E00200C
:10309000901500201D260010B51C002010120020E5
:1030A0002D3E0010F0B5DE4657464E464546E0B58B
:1030B00091B001F097F8002800D1FCE0C34BC44E5A
:1030C0009946C44B0DAC0293C34B9B464B460193B0
:1030D00035686A69EFF3108172B61368002BFCD073
:1030E000BFF35F8FA9612800210001F085F96A69AB
:1030F000AB69BFF35F8F0021116083F31088002854
:1031000000D1D8E06378082BE2D8019A9B00D3580D
:103110009F466368002BDBD0A0689847D8E77F20E4
:103120002179AC4D08404300CA09EB189B181D00DB
:1031300001273035EA78BA43EA70EA780337BA43B0
:10314000EA70002800D1F2E0A44FDB7C002F06D00B
:10315000A34A1278934200D2F1E09B1ADBB2002B13
:1031600000D0A8E09F4DA36862792078A847AFE718
:103170000122984D01202B78042113432B70332317
:10318000EA5C8243EA54EA5C8A43EA540133EA5C2B
:103190008243EA54EA5C00208A43EA5423789A4640
:1031A00000F0F8FC602223791A40602A00D1B5E0D3
:1031B000402A00D1AFE0DB06DB0E012B00D1D3E0CB
:1031C000022B00D120E1002B00D0A7E0202A00D163
:1031D00053E1002A00D0A1E06379092B00D99DE0DA
:1031E000814A9B00D3589F46029B1B78DB0700D483
:1031F0006EE77E4B002B00D16AE700E000BF67E777
:10320000744D2B78DB0700D462E7794B002B00D19B
:103210005EE728780007C00F00E000BF58E70025F0
:1032200023786E4F9A466E4B98461B78002F49D0F4
:103230005A46AB4263D850469047434601351B7807
:10324000EDB2AB42F2D2634D532200212800FFF7CA
:1032500069F81022FF21E81CFFF764F828002022FB
:10326000FF211330FFF75EF82EE0002523785B4F37
:103270009A465B4B98461B78002F2ED05A469D42AB
:1032800033D350469047434601351B78EDB2AB42ED
:10329000F2D2504D532200212800FFF743F81022AC
:1032A000FF21E81CFFF73EF828002022FF21133001
:1032B000FFF738F814E011B0F0BCBB46B246A9469F
:1032C000A046F0BD002D38D000F05AFC494B002B31
:1032D00000D1FDE600E000BFFAE6002D19D03D4D1B
:1032E00000F04EFC2379AB70F2E6434A6B001268A3
:1032F0005B19DB00D318002BF1D05A68C1E73E4AB6
:103300006B0012685B19DB00D318002BDCD05A6805
:1033100091E7314AB5E7394800281AD120780021D1
:10332000FFF7C0FD80212078FFF7BCFDD0E6A36841
:103330006279207800F042FCCAE6274A7BE72E4AF1
:1033400058001268C318DB00D318002BB3D01D69D6
:1033500009E700F01FFC012150460EAA00E000BF63
:10336000002800D0B4E6D9E7237A0F2BD6D81B4F1C
:10337000EB18DB78002F06D0194A1278934200D25E
:103380009CE09B1ADBB2002BC8D11D481D4D00F0FC
:1033900001FC01215046EB680EAA9847002800D096
:1033A00096E66022150023791D401A42B6D1637952
:1033B0000A3B012BB2D800F0EDFB63790A2B00D158
:1033C0007DE150460EA900F06FFB81E62C4E001007
:1033D0009015002038150020A93E00101D26001071
:1033E000B51C00209D400010504E00100000000051
:1033F000000000000000000010120020000000008B
:10340000B93F0010B84E00107023217A0B4285D1CD
:10341000C80984460F330B405B00E8186044C07C49
:10342000B14F8046002F07D0B0480078804550D378
:103430004746381AC0B28046404600283AD1002A92
:1034400000D0F5E0AA4A9046677902203A0082430C
:10345000012A00D1F0E0002F00D05FE7EB186344B1
:103460003033DB780CAA9B07DB0F02321380504607
:1034700002230EA900F02EFB2AE6237A0F2B00D997
:103480004CE7994FEB18DB78002F06D0974A12785B
:10349000934200D2F3E09B1ADBB2002B00D03DE751
:1034A0009448934D00F076FB01215046EB680EAA3C
:1034B000984755E79046002AC6D02FE78E4A590014
:1034C0001568CB18DB00ED18002D00D126E7E86861
:1034D0005DE7474688487F00006847448046FF0014
:1034E000B844002AB0D04346002B00D116E7D86874
:1034F00000F050FB434601215046DB680EAA984776
:103500002EE7A37903931A006B789A4207D06B7861
:10351000002B00D058E1039B002B00D0F8E0039B68
:1035200050460EA96B7000F0BFFAD1E56B780CAA7B
:1035300002321370504601230EA900F0CBFAC7E502
:10354000E3881A0AD8B20F2A00D9E7E66B4993003C
:10355000CB589F460EA800F023FB5046A179FFF7F9
:103560009BFB02222B7813432B70B1E5E388012BE0
:1035700000D0D3E608222B78504693430EA92B7037
:1035800000F092FAA4E5022029780CAB9A1C8B0675
:103590008908DB0F01400B4368E7E388012B00D06B
:1035A000BCE608222B78504613430EA92B7000F07E
:1035B0007BFA8DE5524B002B00D1AFE600E000BF57
:1035C000021E00D1AAE6D37891781B020B43504625
:1035D0000EA900F07FFAC3E64A4B002B00D19DE60E
:1035E00000E000BF021E00D198E6504613780EA9F5
:1035F00000F070FAB4E62189FFF712FA021EF4D146
:103600008CE6022A00D12DE13F4B002B00D185E64C
:1036100000E000BF0200002A00D17FE6D3E7FFF7F9
:10362000F7F9122302000EA9504600F053FA97E66C
:103630002F4B304898465BE7E288002A09D1334A8D
:103640001078012F26D0EF1867443037FB789B079E
:103650003ED54346002B00D13AE5D86800F09AFAEF
:1036600043460121DB680EAA50469847002000F02F
:1036700091FA3423EB5CDB0700D529E5A1E61E4A6D
:1036800059001568CB18DB00ED18002D00D145E678
:10369000E86807E730229146EB18634499444B46AB
:1036A000DB789B07D5D5FFF717FC4B460222DB786A
:1036B00093434A46D370D378BB43D370C9E70CAB6E
:1036C0009A1C504601230EA9157000F003FAFFE47E
:1036D000FFF7E8FB0222FB7813430122FB70FB7823
:1036E0001343FB70B5E7C0461D260010B51C002033
:1036F000B84E0010B93F001010120020784E001094
:10370000000000000000000000000000BC0E0020CF
:10371000581EC0B2FFF780F9002800D1FEE54378BB
:103720000793022B00D0F9E50121C279B14693112C
:1037300052110B400A4012015B0113432A782F31CA
:103740008A4313432B700923984680444746A84672
:10375000C37882781B021343C31804935C4B09930C
:10376000049BBB4200D881E07B7801220B2B02D165
:103770003B78FA78FF187B78042B23D10025049B33
:103780000B92DB1B9BB20593524B19780693524B5D
:103790000A93524B08930A9B002B52D0099B089E18
:1037A0008D4245D339005046059A984784460828EB
:1037B00002D9059A824262D2069B01351978EDB290
:1037C000A942E8D24E46A9E55046FFF755FB002234
:1037D0009146434AAB7805922A004D4691460493A0
:1037E0003C4B3D4F98461B78002F1BD0059A9D42BD
:1037F0002CD350469047434601351B78EDB2AB427F
:10380000F2D24D46532200212800FEF78BFD1022F4
:10381000FF213448FEF786FD2022FF213248FEF7C3
:1038200081FD02E0002D1BD04D46049BAB7072E67B
:1038300018232E4A6B431668F618002EC2D0B368C0
:10384000B0E7002DBED1224B244EABE7274A6B00D8
:1038500012685B19DB00D318002BE5D05A68C8E763
:103860001F4AC6E7FFF7D8F80200D4E6204B4546CA
:103870004E46002B00D152E600E000BF4FE60B9A07
:10388000012A1FD00021464609E0BB78CB18DBB2E5
:10389000F318D878FF2895D10131DD70C9B2914273
:1038A000F3D1B04666462B00390032000E4800F0D6
:1038B0001FFDB446069B67441B78AB4200D34FE71D
:1038C0004E462BE5024BB1689942DBD1079AD9E706
:1038D000D53E0010B51C00201D260010B84E00106B
:1038E000A93E00103B1500204B15002010120020AF
:1038F00000000000F8B557464E46DE4645460C002F
:10390000E0B516001F00002A3CD01F4B00259A4648
:10391000702399461D4B9B4617E05B462000997823
:1039200000F0A8FC00281FD021004046FFF720FA35
:10393000002819D0A378DA09012A1CD00A9A013587
:1039400013702378E418B5421CDA6378052B0BD189
:10395000E3789B079B0FBB4206D153464A461B7830
:103960009846A3781A42D8D00020F0BCBB46B24695
:10397000A946A046F8BD0B9A013513702378E418C8
:10398000B542E2DB0120F0E7BC0E00203815002034
:10399000802310B51B0184B001930E4B02901C686C
:1039A00003916269EFF3108372B611680029FCD0AD
:1039B000BFF35F8FA361200001A900F0DFFD626902
:1039C000A369BFF35F8F0021116083F3108804B0F7
:1039D00010BDC04690150020702270B5094B0C0038
:1039E0001D788B781A4201D0002070BD064B200054
:1039F000997800F03FFC0028F6D021002800FFF75E
:103A0000B7F9F2E7BC0E0020381500200B007F202C
:103A100010B51840DB0933334000044AC018044B8A
:103A20001168C01800F0E2FB10BDC0468C150020E4
:103A3000381500200B007F2010B51840DB09333308
:103A40004000044AC018044B1168C01800F0F6FB8F
:103A500010BDC0468C1500203815002070B57F249D
:103A60000F480C4064000419CD0964193034E07823
:103A7000C00701D5002070BD0126E578094835430F
:103A80000078E570FFF7FCF90028F4D10122E37813
:103A90009343E370E37803329343E370EAE7C0466D
:103AA00038150020BC0E002070B5094C0600082215
:103AB00020000D00FEF73CFC00238021E360A360A2
:103AC0002B783000994300220023FFF7C7FF70BD19
:103AD000DC140020F8B5CE4647469046264E80B509
:103AE0008146082230000D001F00FEF721FC4346EE
:103AF000B3600023F381EC79AB7924021C43231CCF
:103B0000BC4200D93B1C9FB2B381002C0ED0002FC9
:103B100018D04346002B2CD03B1C402F1BD89FB203
:103B200033787F2B1CD80021144A0FE080212B789A
:103B30000022994348460023FFF790FFC0BCB946D6
:103B4000B046F8BD7F230022317899433B004846B8
:103B5000FFF784FFF2E740239FB233787F2BE2D94F
:103B6000064C3A0041462000FEF7E2FB802122008D
:103B7000ECE70020E2E7C046DC140020F814002047
:103B800010B5142200210248FEF7CCFB10BDC04640
:103B9000DC140020014B18617047C046DC14002083
:103BA00010B5054C010008222000FEF7C1FB0023E0
:103BB000A360E36010BDC046DC14002070B5394C32
:103BC0001D0023780600DA09C9098A4213D00020B3
:103BD000002D00D070BD344B002B03D021003000ED
:103BE000FFF7B8F82369002B03D02200032130002F
:103BF00098470120EEE7A0687F2B05D8002834D035
:103C00002A002A49FEF794FBE289A1685219E38849
:103C100092B24919E281A160934214D03F2D12D98A
:103C2000A389981A051C80B240282AD82078ADB202
:103C30007F2828D800219A4232D01C4A2B0030001D
:103C4000FFF70CFFC6E72369002B05D022000221F5
:103C50003000984700280AD0802123780022994319
:103C600030000023FFF7FAFEB4E70020B2E700219E
:103C70003000FFF717F930008021FFF713F901201A
:103C8000A8E74025D2E79A4207D0084C2A00200036
:103C9000FEF74EFB80212200D0E780210022CDE7F5
:103CA0000022CBE7DC140020552D0010F814002072
:103CB00010B50400FFF76EF9002801D1002010BDF7
:103CC000FFF770F90028F9D1B22292006243034B4A
:103CD00001309B181B791840F1E7C04614120020F0
:103CE000B2239B00434310B50248181800F050FB64
:103CF00010BDC04624120020F0B5B225AD004543EA
:103D00002C00C646174F1034E41900B5200092B2BB
:103D100000F0C0FB0600200000F058FB3F2803D84D
:103D2000300080BCB846F0BD7B190020D978984699
:103D3000FFF76CFE0028F3D0200000F047FB3F287F
:103D40000AD992239B00EA184346D219D978002059
:103D50004023FFF783FEE3E743460020D978FFF7CF
:103D600069FEDDE714120020F8B50400FFF712F930
:103D7000002801D10020F8BDFFF714F90028F9D17F
:103D8000B2239B005C432500144E2435AD19280056
:103D900000F0FEFA0028EDD037190020B978FFF7BF
:103DA00035FE0028E6D0A2239B009C466444A4195B
:103DB00021002800402200F06DFBB978051E08D0D4
:103DC000030022000020FFF749FE0028D2D028007F
:103DD000D1E70020FFF72EFECCE7C04614120020EA
:103DE00070B5B224A4004443094B0500E418200038
:103DF00092B200F017FC0600200000F0C9FA3F283C
:103E000001D8300070BD2800FFF7AEFFF9E7C046CB
:103E100038120020B2239B00434310B50248181803
:103E200000F0D4FA10BDC04638120020B222F0B51E
:103E30001B4C83B0002120009200FEF773FAFF2391
:103E40006371184B80260025E38001270823210099
:103E50002000760023733200278138310095073B1C
:103E6000103000F05FFA2100200039313200FF31BC
:103E700001230097243000F055FA8E239B00E618AA
:103E80003000FCF719FF90239B002662E6183000F3
:103E9000E561FCF711FF2663656303B0F0BDC04622
:103EA0001412002000C2FFFF10B5094C05220021AA
:103EB0002000FEF737FA20002434103000F06EFCAA
:103EC000200000F06BFC0121200000F087FC10BDF9
:103ED00014120020F0B54B79060083B0022B02D1FA
:103EE0008B79022B03D00025280003B0F0BD2F4FA3
:103EF000BB78002BF7D18B7809253B700C780C1917
:103F00006378242B0BD1082A02D81FE0AA421DD3C4
:103F10002378E4185D196378ADB2242BF6D0052B15
:103F200031D0042B12D163790A2B0FD1204B277883
:103F3000019301330093022202233000E119FFF7BD
:103F4000D9FC0028CFD00E35ED19ADB2194C2000A8
:103F500000F03CFA3F28C7D92600103E0020F17837
:103F6000FFF754FD0028BFD0200000F02FFA3F28B3
:103F700017D98E239B00E218F93BF178FF3B002014
:103F8000FFF76CFDB0E721003000FFF725FD0028AA
:103F9000A9D0A3787B7023785D19E4186378ADB25B
:103FA000BFE7F1780020FFF745FD9DE714120020E0
:103FB0001612002024120020F8B560231400127895
:103FC000050013400020202B12D12F4A6379277956
:103FD00016781B023B439E420AD16378222B1AD0EB
:103FE00007D8202B3CD0212B02D1012930D0012031
:103FF000F8BD232BFCD101293FD00329F7D1234B56
:10400000002BF4D0E178A37809020020194300E0E6
:1040100000BF0120ECE701292FD00329E7D10125BA
:104020002E00A378E478023924021C431471264040
:1040300024321000714000F0D1FB154B002BD6D07C
:104040006208002031002A4000E000BF0120CFE7D5
:104050000723210028000F4AFFF73CFD0120C7E796
:104060000129F5D00329C2D10B4B002BBFD0002072
:10407000911DFEF7D9FA0120BAE721002800FFF7C9
:1040800013FD0120B4E7C046141200200000000018
:10409000000000001A12002029260010F8B545463D
:1040A0005746DE464E46E0B5464D1F00EA7880464C
:1040B0000C00AB788A4246D000208B421AD0F0BC6C
:1040C000BB46B246A946A046F8BD3F4B002B04D0E4
:1040D000484600F073F900286CD0484600F076F9A5
:1040E0003F2807D94E46103E0020F178FFF78EFC9E
:1040F000002851D1AB78A34201D00120DFE7334B38
:10410000002B02D0002000E000BF0020FFF72CFEB3
:104110000028F2D12E4C200000F03AF90028ECD112
:10412000002FEAD0BF06E8D1243C4046A178FFF733
:104130006DFC0028E1D0002300224046A178FFF763
:104140008DFC0120BBE792239B00EE1810239B46B9
:10415000AB4431005846BAB200F064FA1D4BD94660
:10416000002BB2D06B79FF2BAFD0002FADD0F2195E
:10417000924603E00136B245A7D06B7932789A4275
:10418000F8D1484600F01AF90028F3D14B46103B0D
:10419000597900E000BFEDE7484600F017F93F28E5
:1041A0000BD98E2292004023F1784A440020FFF779
:1041B00055FC9FE7FEF7ACFB8FE7F1780020FFF797
:1041C00039FC97E7141200201129001000000000AC
:1041D000381200200000000010B50020FEF7F4FEA9
:1041E00010BDC04610B5FEF7E5FE10BD037870B5F2
:1041F000DB0704000E00DD0F002B17D103785B07EF
:1042000001D5280070BD01213000494200F0A0FC1A
:104210002378DB07DD0F002B0AD123785B0708D456
:104220000422237801251343237002E00025E8E7E8
:104230000025300000F064FCE3E7C04670B50C00D8
:10424000012106004942200000F082FC33785B0720
:10425000DD0F002B04DB200000F052FC280070BDB5
:104260003378DB0704D40422337893433370F2E7C6
:104270000025F0E7437902791B021343C2785B05FE
:1042800092075B0D920F022A1DD0032A0CD000204A
:10429000012A08D102394A425141124A94466144E6
:1042A00099424041C0B2704702394A1E91410E4ABC
:1042B000494211408022D200944600206144994234
:1042C0004041C0B2EFE7022905D0002040229A42C7
:1042D0004041C0B2E7E7054A981843425841C0B28E
:1042E000E1E7C046FF03000040FCFFFF00FEFFFFC8
:1042F0008A1870B5914207D27F264C78052C04D0DD
:104300000C7809198A42F8D870BD34008D782C4099
:1043100064000419ED0963550C7809198A42ECD838
:10432000F2E7C046F0B5C64600B5040006A8057819
:104330008020884617001E000002824226D8E068CE
:10434000002803D00121494200F002FC2069002826
:1043500003D00121494200F0FBFB43462360730474
:104360005B0CED031D430023E0686381A780E580BB
:104370002381002801D000F0C3FB2069002801D070
:1043800000F0BEFB012080BCB846F0BD0020FAE77B
:1043900010B5048941898288A3B288B28C4207D3C0
:1043A0001B1A9BB2101C9A4200D9181C80B210BD77
:1043B0005100091A5B189BB2F4E7C0460389408993
:1043C000181A43425841C0B27047C04610B504891C
:1043D00041898288A3B288B28C4207D31B1A9BB250
:1043E00000209A4201D9D21A90B210BD5100091A88
:1043F0005B189BB2F4E7C04670B5040000690E007C
:10440000002803D00121494200F0A2FB25896089E0
:10441000A288A9B283B285422CD3CD1AADB2002DA9
:104420002ED0AA4208D2914230D3891A8BB263812E
:104430009A4203D89B1A9BB29A42FBD9E288216820
:104440005204520C53433000C918FDF771FF6389C1
:104450000125591C89B2A2888B4213D90021520030
:10446000891A89B220696181002801D000F048FBD7
:10447000280070BD5500ED1A4D19ADB2002DD0D1F8
:10448000618989B252009142ECDBE9E789188BB26D
:104490006381CDE7F0B546464F46D646C0B5060027
:1044A000006989469046002803D00121494200F066
:1044B0004FFB31897289B5888BB294B2914254D343
:1044C0001F1BBFB2002F4AD0BD4205D2AB4251D212
:1044D0005B199CB22F0074814346B8453DD89FB20A
:1044E000A54203D8641BA4B2A542FBD9F288316867
:1044F0005204520C904662432B1B9BB289184246D1
:104500009F4225D953439BB21A0048469A46FDF76D
:104510000FFF434648467D1B64195C433168504495
:10452000A2B2FDF705FF7189B588CB199BB26A006D
:10453000994216D99B1A9BB230697381002801D029
:1045400000F0DEFA3800E0BCBA46B146A846F0BD3D
:1045500048467A43FDF7ECFEE5E73B1CBFE773896D
:104560009BB26A009342E7DBE4E76F003F1BDF1971
:10457000BFB2A7E75B1B9CB2ACE7C046F8B504002E
:10458000C0680E00002803D00121494200F0E0FA83
:10459000258920896189A288ADB283B28FB2884211
:1045A00029D3DB1B9BB29A4209D8E779FF0906D1D0
:1045B000E068002801D000F0A3FA3800F8BD954269
:1045C0001ED32B009B1A9BB29342FBD2E288206839
:1045D0005204520C53433100C018FDF7A9FE6B1C66
:1045E0009BB2A2889D4218D9002352009B1A9BB20D
:1045F00001272381DCE75100C91B5B189BB2D2E77E
:104600002B00E28820685204520C53433100C0183A
:10461000FDF78EFE0135A288ABB252009342E7DB74
:10462000E4E7C046F0B557464546DE464E46E0B59F
:10463000140005000F0083B0002A75D0C068002860
:1046400003D00121494200F083FA2E89E9796A8971
:10465000AB88B6B292B2C90945D1964200D36DE09B
:1046600059008A1AB21892B2002189469A4234D26D
:104670009A1A111C92B2A24200D9211C8AB2914608
:10468000EA885204520C90464A46B21892B29246B8
:104690004A46D21A92B2934634009E4203D3E41A99
:1046A000A4B29C42FBD24246624328681B1B9BB2C9
:1046B000801842464B4554D34B4639005A43FDF7C8
:1046C00037FEAB885B00B24501D39A4503DB524607
:1046D000D31A9BB29A4653462B81E868002825D00E
:1046E00000F00EFA22E0E9884904490C88469C4211
:1046F00027D2964247D3B11A89B28C465800E11AA4
:1047000089B28B4661460919814208DBD11889B20A
:104710000E1BB6B28A46B2423BD9361AB6B2A219BD
:1047200092B29246A146B7E700239946484603B0A5
:10473000F0BCBB46B246A946A046F0BDB21A92B242
:1047400092E700218946002BC7D04146E41A4C432A
:104750001600D118002289B28A46994693463F191D
:104760009AE753439BB21A0039005C440193FDF76A
:10477000DFFD414622004A43019B286892B2F918A6
:10478000FDF7D6FD9DE75800811A711889B28C4655
:10479000B5E7A146B04200DD7EE7BEE710B50400F4
:1047A000C068002803D00121494200F0D1F92069F6
:1047B000002803D00121494200F0CAF90023E06833
:1047C00063812381002801D000F09AF92069002834
:1047D00001D000F095F9012010BDC04670B504006D
:1047E000C0680D00002803D00121494200F0B0F953
:1047F0002069002803D00121494200F0A9F97F2156
:10480000E379ED011940E0682943E171002801D006
:1048100000F076F92069002801D000F071F901203C
:1048200070BDC0460B4B10B59C4660444342584196
:10483000094A840082B0009208482200E31CFBF77A
:10484000F9FE844202DC001B02B010BD0120404290
:10485000FAE7C0460000D0AF1C4D0010B91C002084
:10486000F0B5DE4657464E4645468846E0B583B02D
:1048700006000524FBF7A6FE43461F791C57314B63
:104880008246F3185A4253419B009C462E4A13001D
:10489000934662469B5801229946BA402023013A2A
:1048A000DB1B002C36DB9C4246DCA2404B4613420D
:1048B00042D10192002F1CD04246434652781B78C9
:1048C00012021A4343469B7880251B041343424639
:1048D000D078002200061843AD015300C15AA94206
:1048E00000D20919A31812339B0001329951BA4220
:1048F000F3D34D46019B62461D435B4650469D5097
:10490000FBF76CFE200003B0F0BCBB46B246A946E4
:10491000A046F0BD002B0FDB1100484699401C005B
:104920000191014206D1C5E7150049469D401C0092
:10493000294204D0013BF7D20448FDF737FB01952B
:10494000B8E7C0460000D0AF54160020404D00101C
:10495000F0B557464E464546DE468946E0B583B03B
:104960000CA90D784946490088464944C9004618B3
:1049700037003400DC3784463868CC3483462068FE
:10498000C024CC31A401614421438024A4020C60E2
:1049900069424D411E216D428D43164901908A4660
:1049A0005544052B0CD9A0201F214005D8365401B1
:1049B00004430532053B3C600A403560052BF6D8C0
:1049C00052019B06134342464A44D20062441000FF
:1049D000DC3213600300D8331D605B461360019B1B
:1049E000CC30036003B0F0BCBB46B246A946A0463B
:1049F000F0BDC0469FE00000F0B501258D40046881
:104A0000AC430460002B2ED04D006C18E400041958
:104A100026001F68C83637605F68DC3477609F689F
:104A2000DB68B76023606B18DB001D008024D03585
:104A3000451964012C4380252D062560256001253C
:104A4000124C2E008C4084600C1DA640802408313E
:104A50008D401F21A4010443C0180A40D8302660AD
:104A600025600260F0BD4D006C18E40004192600BA
:104A70008027C8367F023760F8277F027760C0271B
:104A8000DC343F03B7602360CDE7C046010101017C
:104A900010B583070AD00300032102E001330B4263
:104AA00005D01A78002AF9D1181A10BD0300196828
:104AB0000C4A0D4C8A188A4322420FD15968094A80
:104AC00004338A188A43224208D15968054A0433BC
:104AD0008A188A432242F1D000E001331A78002A72
:104AE000FBD1E1E7FFFEFEFE80808080F8B5C04686
:104AF00001B40248844601BC604700BFC9020020DF
:104B000001B40248844601BC604700BF2D0200206A
:104B100001B40248844601BC604700BF750D002007
:104B200001B40248844601BC604700BF89030020ED
:104B300001B40248844601BC604700BFC1000020A8
:104B400001B40248844601BC604700BFD909002077
:104B500001B40248844601BC604700BF9D010020AB
:104B600001B40248844601BC604700BFB10900207F
:104B700001B40248844601BC604700BF0101002027
:104B800001B40248844601BC604700BF4D0B0020C1
:104B900001B40248844601BC604700BFF50A00200A
:104BA000A84B001004FF000021622311001442A44E
:104BB0004E6F207370696E6C6F636B7320617265EA
:104BC00020617661696C61626C6500004E6F2075D2
:104BD000736572204952517320617265206176615C
:104BE000696C61626C65000048617264776172652E
:104BF00020616C61726D20256420616C7265616456
:104C00007920636C61696D65640000000A2A2A2AB4
:104C10002050414E4943202A2A2A0A000A00000057
:104C200048617264206173736572740052656C65CB
:104C300061736500626F6F74325F7732357130383F
:104C400030000000302E3100312E352E31000000B2
:104C50007069636F000000006E656F706978656C45
:104C60005F70696F000000004D61722020382032B3
:104C70003032360055534220737464696E202F2001
:104C80007374646F75740000526173706265727240
:104C900079205069000000005069636F0000000037
:104CA000426F6172642043444300000052657365A3
:104CB00074000000556E68616E646C656420495232
:104CC0005120307825780A006570202564202573EE
:104CD0002077617320616C7265616479206176610F
:104CE000696C61626C65000043616E277420636FBC
:104CF0006E74696E75652078666572206F6E2069C6
:104D00006E61637469766520657020256420257363
:104D1000000000006F757400696E00004E6F205037
:104D2000494F207374617465206D616368696E65B5
:104D3000732061726520617661696C61626C6500E7
:104D40004E6F2070726F6772616D20737061636562
:104D50000000000006005250D3F075422C4C0010A9
:104D600006005250E182887F344C001006005250F9
:104D70003ABCA911444C001006005250BBFF3CB68F
:104D8000504C00100D0A00008125001085250010F0
:104D900091250010BD250010B9250010000000006D
:104DA0000600525053B4F4A1744C001000000000EF
:104DB000884C0010984C0010A41C0020A04C00103F
:104DC000AC4C001009025400030100807D080B0068
:104DD000020202000009040000010202000405248E
:104DE000002001052401000104240202052406001C
:104DF000010705810308001009040100020A0000F0
:104E00000007050202400000070582024000000979
:104E100004020000FF00010512010002EF02014040
:104E20008A2E0A000001010203010000D0300010A8
:104E30006A3200101E320010D03000100032001014
:104E4000E8310010703100101E31001012310010D6
:104E5000863500106C3500101C3300109A35001098
:104E60001C33001054350010403500101C33001066
:104E70002C350010023500101C3300101E360010B7
:104E800002360010F63500101C3300101C330010E1
:104E9000D8350010023600101C3300101C330010EF
:104EA0001C3300101C3300101C3300101C33001086
:104EB0001C330010B43500102D3E0010A93E001028
:104EC000D53E0010B93F00109D40001000000000CA
:104ED000544D0010604D00106C4D00108802001001
:104EE000784D001094020010A0020010AC020010D7
:044EF000A04D0010C1
:104EF40003000068EFF3108C72B60268002AFCD03D
:104F0400BFF35F8F04229A56002A04DB002900D0E5
:104F14000A60002004E0D0220120120612681A71EF
:104F24001B68BFF35F8F00221A608CF310887047F0
:104F3400F0B5C646150000B504001E000268EFF384
:104F4400108172B61368002BFCD0BFF35F8F04236B
:104F5400E356002B2DDB2268BFF35F8F0020106027
:104F640081F31088D0221206127852B290469A42E7
:104F740003D1002080BCB846F0BD00270BE02368B5
:104F8400BFF35F8F1F6081F310882800310000F0A9
:104F94000BFE0028EDD12268EFF3108172B613687E
:104FA400002BFCD0BFF35F8F23797F2BE7D94346D7
:104FB40002E0D0231B061B6823712368BFF35F8FB5
:104FC40000221A6081F310880120D3E7F0B5C646A9
:104FD40000B50D00040000F0EFFDFA2206000F00FA
:104FE400002328000021920000F0EEFD80233618F3
:104FF4004F411B069F4202D30126174F7642D0230E
:105004001B061B68002598460BE02368BFF35F8FDF
:105014001D6081F310883000390000F0C5FD0028C0
:1050240018D12268EFF3108172B61368002BFCD0FC
:10503400BFF35F8F23797F2BE7D94346237123681E
:10504400BFF35F8F00221A6081F31088012080BCB7
:10505400B846F0BD0020FAE7FFFFFF7F0268EFF3D8
:10506400108172B61368002BFCD0BFF35F8FFF234F
:1050740003710368BFF35F8F00221A6081F3108805
:1050840040BF704710B5084C2378002B0AD1802309
:10509400064807495B051A68C25004338B42FAD1AB
:1050A4000123237010BDC046B71C00206C160010ED
:1050B4000001001010B5014B984710BD6D1600207B
:1050C400034B1A68C0239B009343024A1360704742
:1050D4000C8001400C900140054B1A6880239B0012
:1050E4005340C02292001340024A13607047C046E6
:1050F4000C8001400C9001401423F0B5D6464F4675
:1051040046469A46814618880433C0B598460E0030
:105114001B882649140098475346070018884346BD
:1051240023491B889847534605001888434621495C
:105134001B8898478046FFF7A5FFB847A847FFF7A5
:10514400CBFF221E20D0C02108270220490511E0F0
:10515400002C14D0131B0D2B20D9002D0AD02300B2
:10516400002A05D00B6E013A337013000136234335
:10517400002B09D03D008B6A1D401842E8D1002D58
:10518400EDD123001343F5D1FFF79AFFC047FFF792
:1051940091FFE0BCBA46B146A846F0BD4B461B7829
:1051A400013C0B6601239C46E144E8E749460000C4
:1051B40045580000464300000022154B10B59A6084
:1051C400DA601A615A619A61DA611A625A629A6201
:1051D400DA621A635A639A63DA631A645A649A64E1
:1051E400DA641A655A659A65DA651A665A669A66C1
:1051F400DA661A675A679A67DA67F0329200002112
:10520400044800F0F1FC044B044A1A6010BDC04687
:10521400000010502C180020401C00208001105069
:10522400F0B557464E464546DE46E0B5254B0025CB
:105234009F6D012687B0002F23D0234B994601236D
:105244009B46224B984601E0202D1AD032002C00B8
:105254000135B2463A40EDB27600002AF4D04B460E
:1052640052469A655B46640864002B40E418640166
:105274004444200000F0B8FB002809D153469F4362
:10528400E2D107B0F0BCBB46B246A946A046F0BD89
:10529400E28AA37802A80192002106220630009334
:1052A40000F0A2FCE02302A9DB008B80009B019AA2
:1052B4000B7203A80121059200F0BEFB200000F050
:1052C4002BFBDBE70000115000301150EC170020DD
:1052D4009823C84AF0B5D55880232C009B02102689
:1052E40085B01C401D427AD0C34BC44C9A6AC44B4F
:1052F40000261A603B23E35C022B00D1DFE07B2312
:10530400E35C022B00D1B9E1BB23E35C022B00D1A7
:10531400A9E1FB23E35C022B00D199E13C23FF3399
:10532400E35C022B00D158E17C23FF33E35C022BC6
:1053340000D145E1BC23FF33E35C022B00D132E111
:10534400FC23FF33E35C022B00D11FE1AD4BE35C94
:10535400022B00D10EE1AC4BE35C022B00D1FDE04B
:10536400AA4BE35C022B00D1ECE0A94BE35C022BDB
:1053740000D1DBE0A74BE35C022B00D1CAE0A64BD3
:10538400E35C022B00D1ABE0A44BE35C022B00D125
:105394007FE1A34BE35C022B00D196E1002E08D100
:1053A400A04B1B78002B04D180219F4A90338902A3
:1053B400D150904B0A229C6C6B460021981D00F042
:1053C40013FCC023640501AE9B00640D33803000E0
:1053D40002940121802400F02FFB944EA402EB06DA
:1053E40069D480235B021D4214D0012223211C4373
:1053F400824B5A54DA70C0238D4ADB00019302AB0E
:1054040003CA03C3012101A800F016FB8022864BC6
:1054140092021A6580235B011D4233D18023DB0194
:105424001D421CD180231B021D4204D1AC4200D07A
:10543400C8E105B0F0BD1C436B460A220021981D4B
:1054440000F0D2FBA02301AEDB0033800121300049
:1054540000F0F2FA8022744B12011A65E6E71C434D
:105464006B460A220021981D00F0BEFB802301AE8A
:10547400DB0033800121300000F0DEFA10226A4B99
:105484001A65CFE700221C435A4B01AE1A60FFF79E
:1054940093FE6B460A220021981D00F0A5FB802391
:1054A4005B0033800121300000F0C6FA80225E4B9D
:1054B40012031A65B2E7FFF7B3FE340091E73833FD
:1054C400E65C002E00D11AE70233E25C002A00D128
:1054D40015E7200000222030E25400F04FFA0EE7D6
:1054E400544BE75C002F00D14EE70233E25C002A04
:1054F40000D060E1494BE35C022B00D1DBE0484B78
:10550400E35C022B00D054E74B4BE35C002B00D050
:10551400E0E04EE7494BE75C002F00D12FE7023370
:10552400E25C002A00D03EE13E0028E7444BE75C01
:10553400002F00D11EE70233E25C002A00D02AE1EA
:105544003E0017E73F4BE75C002F00D10DE7023325
:10555400E25C002A00D016E13E0006E73A4BE75C25
:10556400002F00D1FCE60233E25C002A00D002E105
:105574003E00F5E6354BE75C002F00D1EBE6023345
:10558400E25C002A00D0EEE03E00E4E6F933FF33AB
:10559400E75C002F00D1D9E60233E25C002A00D098
:1055A400D8E03E00D2E6B933FF33E75C002F00D1E8
:1055B400C6E60233E25C002A00D0C2E03E00BFE649
:1055C4007933FF33E75C002F00D1B3E60233E25CAA
:1055D400002A00D0ACE03E00ACE63933FF33E75C90
:1055E400002F00D1A0E60233E25C002A00D096E04E
:1055F4003E0099E60000115000400540EC170020E1
:10560400E41700203B0200007B020000BB02000004
:10561400FB0200003B0300007B030000BB0300000F
:10562400FB030000B61C00200030115010000200E3
:10563400000010507A030000FA0300003A0300004F
:10564400FA020000BA0200007A0200003A020000E6
:10565400F833E75C002F00D160E60233E25C002AF5
:1056640055D13E005AE6B833E75C002F00D150E62E
:105674000233E25C002A42D13E004AE67833E75C1A
:10568400002F00D140E60233E25C002A2FD13E0015
:105694003AE64F4BE35C002B00D17AE6EF239B0004
:1056A400E25C002A00D12AE70022E2541C3BE01805
:1056B40000F064F923E7464BE35C002BEED1454B45
:1056C400E35C022B00D074E63E00434BE35C002B0A
:1056D40000D163E6FF239B00E25C002A00D168E668
:1056E4000022E2541C3BE01800F048F961E6200077
:1056F40000226030E2543E0000F040F904E620004D
:105704000022A030E2543E0000F038F901E6200007
:105714000022E030E2543E0000F030F9FEE52000C3
:1057240000222130FF30E2543E0000F027F9FBE56F
:10573400200000226130FF30E2543E0000F01EF9E8
:10574400F8E520000022A130FF30E2543E0000F0D2
:1057540015F9F5E520000022E130FF30E2543E0067
:1057640000F00CF9F2E50022E2541C3BE01800F0D2
:1057740005F93E00EFE50022E2541C3BE01800F07E
:10578400FDF83E00ECE50022E2541C3BE01800F07A
:10579400F5F83E00E9E50022E2541C3BE01800F075
:1057A400EDF83E00E6E50022E2541C3BE01800F070
:1057B400E5F83E00E3E50022E2541C3BE01800F06B
:1057C400DDF897E621000548694000F005FAC04677
:1057D400BA030000FB030000FA030000B44C0010FD
:1057E400084A0300126C0020920703D49A78D20965
:1057F400012A00D07047D87E023843425841C0B2D3
:10580400F8E7C0460000115010B5FFF7E9FF002883
:105814000CD00749074B8C46074A9B6A12686344BD
:105824009B1A0020C6229A424041C0B210BDC04615
:10583400E0FCFFFF00400540E4170020F8B5028BB0
:10584400838A04000F00161C9A4200D91E1CE278B9
:1058540080211500681E8541B6B2C90031436D032D
:105864000D4301214A409B1BE27062789BB2A382E4
:10587400002A09D0002B02D18023DB011D43002F15
:1058840000D02D042800F8BDE068BB01C018320028
:10589400216900F0B1F923699B19236180231B025C
:1058A4001D43A38AE6E7C046836870B504001D68FB
:1058B400002900D02D0C6378AD05AD0D002B09D166
:1058C400E38AEB18E382238BAB4201D90023A38242
:1058D400280070BDE368890159182A00206900F086
:1058E4008BF9E38AEB18E38223695B192361EAE706
:1058F40010B50400836800211B68FFF7D5FF6368B7
:105904001B685B0002D5238B834200D010BD0121AC
:105914002000FFF7C9FFF9E70023837643610361A1
:105924007047C04610B58368002901D01C68214027
:10593400002A11D08024E400114322420CD01A68BA
:1059440022420BD10A4A0A401A60FFE7FFE7FFE749
:10595400FFE7FFE7FFE78368196010BD81787F20C8
:10596400CA09044B92000140D258034800F034F9AC
:10597400FFFBFFFF980E0020C84C0010436870B571
:10598400002180251E680400FFF758FF134B6D01AA
:105994001B6C05439B070FD5A3785B060FD0104BF8
:1059A4001E4080239B05334362680021136020005E
:1059B4002A00FFF7B7FF70BDA378DB09EFD0A38AF5
:1059C400002BECD001212000FFF738FFA023054A6B
:1059D400DB05324005431343E6E7C046000011509F
:1059E400FFFFFFAFFFFFFFDF70B5857E0400002DD2
:1059F40014D0FFF77DFFA38A002B01D1280070BDCE
:105A04002000FFF701FF002803D00123002523779E
:105A1400F4E72000FFF7B2FF0025EFE781787F204D
:105A2400CA09034B92000140D258024800F0D4F84E
:105A3400980E0020E84C0010F0B5C64600B5437837
:105A4400050084B0042B00D178E047D8022B00D1A4
:105A540086E0032B56D14E4F4E4A002490463B78A5
:105A64004D4E03E00134E4B29C4216D8002EF9D026
:105A74009C42F7D24146620009681219D2008A1882
:105A8400002AEFD05269002AECD069682878904740
:105A940001343B78E4B29C42E8D9404B1A7852076F
:105AA40048D504211A788A431A706B460A220021C9
:105AB400981D00F099F86A462B78137105235371E9
:105AC400374B1C686269EFF3108172B61368002BC0
